{
  "_format": "hh-sol-artifact-1",
  "contractName": "LazyNFT",
  "sourceName": "contracts/LazyNFT.sol",
  "abi": [
    {
      "inputs": [
        {
          "internalType": "address payable",
          "name": "minter",
          "type": "address"
        }
      ],
      "stateMutability": "nonpayable",
      "type": "constructor"
    },
    {
      "anonymous": false,
      "inputs": [
        {
          "indexed": true,
          "internalType": "address",
          "name": "owner",
          "type": "address"
        },
        {
          "indexed": true,
          "internalType": "address",
          "name": "approved",
          "type": "address"
        },
        {
          "indexed": true,
          "internalType": "uint256",
          "name": "tokenId",
          "type": "uint256"
        }
      ],
      "name": "Approval",
      "type": "event"
    },
    {
      "anonymous": false,
      "inputs": [
        {
          "indexed": true,
          "internalType": "address",
          "name": "owner",
          "type": "address"
        },
        {
          "indexed": true,
          "internalType": "address",
          "name": "operator",
          "type": "address"
        },
        {
          "indexed": false,
          "internalType": "bool",
          "name": "approved",
          "type": "bool"
        }
      ],
      "name": "ApprovalForAll",
      "type": "event"
    },
    {
      "anonymous": false,
      "inputs": [
        {
          "indexed": true,
          "internalType": "bytes32",
          "name": "role",
          "type": "bytes32"
        },
        {
          "indexed": true,
          "internalType": "bytes32",
          "name": "previousAdminRole",
          "type": "bytes32"
        },
        {
          "indexed": true,
          "internalType": "bytes32",
          "name": "newAdminRole",
          "type": "bytes32"
        }
      ],
      "name": "RoleAdminChanged",
      "type": "event"
    },
    {
      "anonymous": false,
      "inputs": [
        {
          "indexed": true,
          "internalType": "bytes32",
          "name": "role",
          "type": "bytes32"
        },
        {
          "indexed": true,
          "internalType": "address",
          "name": "account",
          "type": "address"
        },
        {
          "indexed": true,
          "internalType": "address",
          "name": "sender",
          "type": "address"
        }
      ],
      "name": "RoleGranted",
      "type": "event"
    },
    {
      "anonymous": false,
      "inputs": [
        {
          "indexed": true,
          "internalType": "bytes32",
          "name": "role",
          "type": "bytes32"
        },
        {
          "indexed": true,
          "internalType": "address",
          "name": "account",
          "type": "address"
        },
        {
          "indexed": true,
          "internalType": "address",
          "name": "sender",
          "type": "address"
        }
      ],
      "name": "RoleRevoked",
      "type": "event"
    },
    {
      "anonymous": false,
      "inputs": [
        {
          "indexed": true,
          "internalType": "address",
          "name": "from",
          "type": "address"
        },
        {
          "indexed": true,
          "internalType": "address",
          "name": "to",
          "type": "address"
        },
        {
          "indexed": true,
          "internalType": "uint256",
          "name": "tokenId",
          "type": "uint256"
        }
      ],
      "name": "Transfer",
      "type": "event"
    },
    {
      "inputs": [],
      "name": "DEFAULT_ADMIN_ROLE",
      "outputs": [
        {
          "internalType": "bytes32",
          "name": "",
          "type": "bytes32"
        }
      ],
      "stateMutability": "view",
      "type": "function"
    },
    {
      "inputs": [],
      "name": "MINTER_ROLE",
      "outputs": [
        {
          "internalType": "bytes32",
          "name": "",
          "type": "bytes32"
        }
      ],
      "stateMutability": "view",
      "type": "function"
    },
    {
      "inputs": [
        {
          "internalType": "address",
          "name": "to",
          "type": "address"
        },
        {
          "internalType": "uint256",
          "name": "tokenId",
          "type": "uint256"
        }
      ],
      "name": "approve",
      "outputs": [],
      "stateMutability": "nonpayable",
      "type": "function"
    },
    {
      "inputs": [],
      "name": "availableToWithdraw",
      "outputs": [
        {
          "internalType": "uint256",
          "name": "",
          "type": "uint256"
        }
      ],
      "stateMutability": "view",
      "type": "function"
    },
    {
      "inputs": [
        {
          "internalType": "address",
          "name": "owner",
          "type": "address"
        }
      ],
      "name": "balanceOf",
      "outputs": [
        {
          "internalType": "uint256",
          "name": "",
          "type": "uint256"
        }
      ],
      "stateMutability": "view",
      "type": "function"
    },
    {
      "inputs": [
        {
          "internalType": "uint256",
          "name": "tokenId",
          "type": "uint256"
        }
      ],
      "name": "getApproved",
      "outputs": [
        {
          "internalType": "address",
          "name": "",
          "type": "address"
        }
      ],
      "stateMutability": "view",
      "type": "function"
    },
    {
      "inputs": [],
      "name": "getChainID",
      "outputs": [
        {
          "internalType": "uint256",
          "name": "",
          "type": "uint256"
        }
      ],
      "stateMutability": "view",
      "type": "function"
    },
    {
      "inputs": [
        {
          "internalType": "bytes32",
          "name": "role",
          "type": "bytes32"
        }
      ],
      "name": "getRoleAdmin",
      "outputs": [
        {
          "internalType": "bytes32",
          "name": "",
          "type": "bytes32"
        }
      ],
      "stateMutability": "view",
      "type": "function"
    },
    {
      "inputs": [
        {
          "internalType": "bytes32",
          "name": "role",
          "type": "bytes32"
        },
        {
          "internalType": "address",
          "name": "account",
          "type": "address"
        }
      ],
      "name": "grantRole",
      "outputs": [],
      "stateMutability": "nonpayable",
      "type": "function"
    },
    {
      "inputs": [
        {
          "internalType": "bytes32",
          "name": "role",
          "type": "bytes32"
        },
        {
          "internalType": "address",
          "name": "account",
          "type": "address"
        }
      ],
      "name": "hasRole",
      "outputs": [
        {
          "internalType": "bool",
          "name": "",
          "type": "bool"
        }
      ],
      "stateMutability": "view",
      "type": "function"
    },
    {
      "inputs": [
        {
          "internalType": "address",
          "name": "owner",
          "type": "address"
        },
        {
          "internalType": "address",
          "name": "operator",
          "type": "address"
        }
      ],
      "name": "isApprovedForAll",
      "outputs": [
        {
          "internalType": "bool",
          "name": "",
          "type": "bool"
        }
      ],
      "stateMutability": "view",
      "type": "function"
    },
    {
      "inputs": [],
      "name": "name",
      "outputs": [
        {
          "internalType": "string",
          "name": "",
          "type": "string"
        }
      ],
      "stateMutability": "view",
      "type": "function"
    },
    {
      "inputs": [
        {
          "internalType": "uint256",
          "name": "tokenId",
          "type": "uint256"
        }
      ],
      "name": "ownerOf",
      "outputs": [
        {
          "internalType": "address",
          "name": "",
          "type": "address"
        }
      ],
      "stateMutability": "view",
      "type": "function"
    },
    {
      "inputs": [
        {
          "internalType": "address",
          "name": "redeemer",
          "type": "address"
        },
        {
          "components": [
            {
              "internalType": "uint256",
              "name": "tokenId",
              "type": "uint256"
            },
            {
              "internalType": "uint256",
              "name": "minPrice",
              "type": "uint256"
            },
            {
              "internalType": "string",
              "name": "uri",
              "type": "string"
            },
            {
              "internalType": "bytes",
              "name": "signature",
              "type": "bytes"
            }
          ],
          "internalType": "struct LazyNFT.NFTVoucher",
          "name": "voucher",
          "type": "tuple"
        }
      ],
      "name": "redeem",
      "outputs": [
        {
          "internalType": "uint256",
          "name": "",
          "type": "uint256"
        }
      ],
      "stateMutability": "payable",
      "type": "function"
    },
    {
      "inputs": [
        {
          "internalType": "bytes32",
          "name": "role",
          "type": "bytes32"
        },
        {
          "internalType": "address",
          "name": "account",
          "type": "address"
        }
      ],
      "name": "renounceRole",
      "outputs": [],
      "stateMutability": "nonpayable",
      "type": "function"
    },
    {
      "inputs": [
        {
          "internalType": "bytes32",
          "name": "role",
          "type": "bytes32"
        },
        {
          "internalType": "address",
          "name": "account",
          "type": "address"
        }
      ],
      "name": "revokeRole",
      "outputs": [],
      "stateMutability": "nonpayable",
      "type": "function"
    },
    {
      "inputs": [
        {
          "internalType": "address",
          "name": "from",
          "type": "address"
        },
        {
          "internalType": "address",
          "name": "to",
          "type": "address"
        },
        {
          "internalType": "uint256",
          "name": "tokenId",
          "type": "uint256"
        }
      ],
      "name": "safeTransferFrom",
      "outputs": [],
      "stateMutability": "nonpayable",
      "type": "function"
    },
    {
      "inputs": [
        {
          "internalType": "address",
          "name": "from",
          "type": "address"
        },
        {
          "internalType": "address",
          "name": "to",
          "type": "address"
        },
        {
          "internalType": "uint256",
          "name": "tokenId",
          "type": "uint256"
        },
        {
          "internalType": "bytes",
          "name": "data",
          "type": "bytes"
        }
      ],
      "name": "safeTransferFrom",
      "outputs": [],
      "stateMutability": "nonpayable",
      "type": "function"
    },
    {
      "inputs": [
        {
          "internalType": "address",
          "name": "operator",
          "type": "address"
        },
        {
          "internalType": "bool",
          "name": "approved",
          "type": "bool"
        }
      ],
      "name": "setApprovalForAll",
      "outputs": [],
      "stateMutability": "nonpayable",
      "type": "function"
    },
    {
      "inputs": [
        {
          "internalType": "bytes4",
          "name": "interfaceId",
          "type": "bytes4"
        }
      ],
      "name": "supportsInterface",
      "outputs": [
        {
          "internalType": "bool",
          "name": "",
          "type": "bool"
        }
      ],
      "stateMutability": "view",
      "type": "function"
    },
    {
      "inputs": [],
      "name": "symbol",
      "outputs": [
        {
          "internalType": "string",
          "name": "",
          "type": "string"
        }
      ],
      "stateMutability": "view",
      "type": "function"
    },
    {
      "inputs": [
        {
          "internalType": "uint256",
          "name": "tokenId",
          "type": "uint256"
        }
      ],
      "name": "tokenURI",
      "outputs": [
        {
          "internalType": "string",
          "name": "",
          "type": "string"
        }
      ],
      "stateMutability": "view",
      "type": "function"
    },
    {
      "inputs": [
        {
          "internalType": "address",
          "name": "from",
          "type": "address"
        },
        {
          "internalType": "address",
          "name": "to",
          "type": "address"
        },
        {
          "internalType": "uint256",
          "name": "tokenId",
          "type": "uint256"
        }
      ],
      "name": "transferFrom",
      "outputs": [],
      "stateMutability": "nonpayable",
      "type": "function"
    },
    {
      "inputs": [],
      "name": "withdraw",
      "outputs": [],
      "stateMutability": "nonpayable",
      "type": "function"
    }
  ],
  "bytecode": "0x6101406040523480156200001257600080fd5b506040516200274b3803806200274b833981016040819052620000359162000300565b6040518060400160405280600f81526020016e2630bd3ca7232a16ab37bab1b432b960891b815250604051806040016040528060018152602001603160f81b8152506040518060400160405280600781526020016613185e9e53919560ca1b815250604051806040016040528060038152602001622620ad60e91b8152508160009080519060200190620000cb9291906200025a565b508051620000e19060019060208401906200025a565b5050825160209384012082519284019290922060e08390526101008190524660a0818152604080517f8b73c3c69bb8fe3d512ecc4cf759cc79239f7b179b0ffacaa9a75d522b39400f818901819052818301979097526060810194909452608080850193909352308483018190528151808603909301835260c09485019091528151919096012090529290925261012052506200019f7f9f2df0fed2c77648de5860a4cc508cd0818c85b8b8a1ab4ceeef8d981c8956a682620001a6565b506200036f565b620001b28282620001b6565b5050565b60008281526007602090815260408083206001600160a01b038516845290915290205460ff16620001b25760008281526007602090815260408083206001600160a01b03851684529091529020805460ff19166001179055620002163390565b6001600160a01b0316816001600160a01b0316837f2f8788117e7eff1d82e926ec794901d17c78024a50270940304540a733656f0d60405160405180910390a45050565b828054620002689062000332565b90600052602060002090601f0160209004810192826200028c5760008555620002d7565b82601f10620002a757805160ff1916838001178555620002d7565b82800160010185558215620002d7579182015b82811115620002d7578251825591602001919060010190620002ba565b50620002e5929150620002e9565b5090565b5b80821115620002e55760008155600101620002ea565b6000602082840312156200031357600080fd5b81516001600160a01b03811681146200032b57600080fd5b9392505050565b600181811c908216806200034757607f821691505b602082108114156200036957634e487b7160e01b600052602260045260246000fd5b50919050565b60805160a05160c05160e051610100516101205161238c620003bf6000396000611b3601526000611b8501526000611b6001526000611ab901526000611ae301526000611b0d015261238c6000f3fe60806040526004361061014b5760003560e01c80636352211e116100b6578063b88d4fde1161006f578063b88d4fde146103a4578063c87b56dd146103c4578063d5391393146103e4578063d547741f14610418578063e322ad2b14610438578063e985e9c51461045a57600080fd5b80636352211e146102fa57806370a082311461031a57806391d148541461033a57806395d89b411461035a578063a217fddf1461036f578063a22cb4651461038457600080fd5b8063248a9ca311610108578063248a9ca3146102425780632f2ff15d1461027257806336568abe146102925780633ccfd60b146102b257806342842e0e146102c7578063564b81ef146102e757600080fd5b806301ffc9a71461015057806306fdde0314610185578063081812fc146101a757806308708a78146101df578063095ea7b31461020057806323b872dd14610222575b600080fd5b34801561015c57600080fd5b5061017061016b366004611d46565b6104a3565b60405190151581526020015b60405180910390f35b34801561019157600080fd5b5061019a6104c3565b60405161017c9190611dbb565b3480156101b357600080fd5b506101c76101c2366004611dce565b610555565b6040516001600160a01b03909116815260200161017c565b6101f26101ed366004611e03565b61057c565b60405190815260200161017c565b34801561020c57600080fd5b5061022061021b366004611e58565b610623565b005b34801561022e57600080fd5b5061022061023d366004611e82565b61073e565b34801561024e57600080fd5b506101f261025d366004611dce565b60009081526007602052604090206001015490565b34801561027e57600080fd5b5061022061028d366004611ebe565b61076f565b34801561029e57600080fd5b506102206102ad366004611ebe565b610794565b3480156102be57600080fd5b50610220610812565b3480156102d357600080fd5b506102206102e2366004611e82565b6108d7565b3480156102f357600080fd5b50466101f2565b34801561030657600080fd5b506101c7610315366004611dce565b6108f2565b34801561032657600080fd5b506101f2610335366004611eea565b610952565b34801561034657600080fd5b50610170610355366004611ebe565b6109d8565b34801561036657600080fd5b5061019a610a03565b34801561037b57600080fd5b506101f2600081565b34801561039057600080fd5b5061022061039f366004611f05565b610a12565b3480156103b057600080fd5b506102206103bf366004611f4c565b610a1d565b3480156103d057600080fd5b5061019a6103df366004611dce565b610a55565b3480156103f057600080fd5b506101f27f9f2df0fed2c77648de5860a4cc508cd0818c85b8b8a1ab4ceeef8d981c8956a681565b34801561042457600080fd5b50610220610433366004611ebe565b610b66565b34801561044457600080fd5b50336000908152600860205260409020546101f2565b34801561046657600080fd5b50610170610475366004612028565b6001600160a01b03918216600090815260056020908152604080832093909416825291909152205460ff1690565b60006104ae82610b8b565b806104bd57506104bd82610bdb565b92915050565b6060600080546104d290612052565b80601f01602080910402602001604051908101604052809291908181526020018280546104fe90612052565b801561054b5780601f106105205761010080835404028352916020019161054b565b820191906000526020600020905b81548152906001019060200180831161052e57829003601f168201915b5050505050905090565b600061056082610c00565b506000908152600460205260409020546001600160a01b031690565b60008061058883610c62565b9050610595818435610cc2565b6105e183356105a7604086018661208d565b8080601f016020809104026020016040519081016040528093929190818152602001838380828437600092019190915250610e4d92505050565b6105ed81858535610ee7565b6001600160a01b038116600090815260086020526040812080543492906106159084906120ea565b909155505091359392505050565b600061062e826108f2565b9050806001600160a01b0316836001600160a01b031614156106a15760405162461bcd60e51b815260206004820152602160248201527f4552433732313a20617070726f76616c20746f2063757272656e74206f776e656044820152603960f91b60648201526084015b60405180910390fd5b336001600160a01b03821614806106bd57506106bd8133610475565b61072f5760405162461bcd60e51b815260206004820152603d60248201527f4552433732313a20617070726f76652063616c6c6572206973206e6f7420746f60448201527f6b656e206f776e6572206f7220617070726f76656420666f7220616c6c0000006064820152608401610698565b610739838361104b565b505050565b61074833826110b9565b6107645760405162461bcd60e51b815260040161069890612102565b610739838383610ee7565b60008281526007602052604090206001015461078a81611137565b6107398383611141565b6001600160a01b03811633146108045760405162461bcd60e51b815260206004820152602f60248201527f416363657373436f6e74726f6c3a2063616e206f6e6c792072656e6f756e636560448201526e103937b632b9903337b91039b2b63360891b6064820152608401610698565b61080e82826111c7565b5050565b61083c7f9f2df0fed2c77648de5860a4cc508cd0818c85b8b8a1ab4ceeef8d981c8956a6336109d8565b6108945760405162461bcd60e51b8152602060048201526024808201527f4f6e6c7920617574686f72697a6564206d696e746572732063616e20776974686044820152636472617760e01b6064820152608401610698565b3360008181526008602052604080822080549083905590519091839183156108fc0291849190818181858888f19350505050158015610739573d6000803e3d6000fd5b61073983838360405180602001604052806000815250610a1d565b6000818152600260205260408120546001600160a01b0316806104bd5760405162461bcd60e51b8152602060048201526018602482015277115490cdcc8c4e881a5b9d985b1a59081d1bdad95b88125160421b6044820152606401610698565b60006001600160a01b0382166109bc5760405162461bcd60e51b815260206004820152602960248201527f4552433732313a2061646472657373207a65726f206973206e6f7420612076616044820152683634b21037bbb732b960b91b6064820152608401610698565b506001600160a01b031660009081526003602052604090205490565b60009182526007602090815260408084206001600160a01b0393909316845291905290205460ff1690565b6060600180546104d290612052565b61080e33838361122e565b610a2733836110b9565b610a435760405162461bcd60e51b815260040161069890612102565b610a4f848484846112fd565b50505050565b6060610a6082610c00565b60008281526006602052604081208054610a7990612052565b80601f0160208091040260200160405190810160405280929190818152602001828054610aa590612052565b8015610af25780601f10610ac757610100808354040283529160200191610af2565b820191906000526020600020905b815481529060010190602001808311610ad557829003601f168201915b505050505090506000610b1060408051602081019091526000815290565b9050805160001415610b23575092915050565b815115610b55578082604051602001610b3d92919061214f565b60405160208183030381529060405292505050919050565b610b5e84611330565b949350505050565b600082815260076020526040902060010154610b8181611137565b61073983836111c7565b60006001600160e01b031982166380ac58cd60e01b1480610bbc57506001600160e01b03198216635b5e139f60e01b145b806104bd57506301ffc9a760e01b6001600160e01b03198316146104bd565b60006001600160e01b03198216637965db0b60e01b14806104bd57506104bd82610b8b565b6000818152600260205260409020546001600160a01b0316610c5f5760405162461bcd60e51b8152602060048201526018602482015277115490cdcc8c4e881a5b9d985b1a59081d1bdad95b88125160421b6044820152606401610698565b50565b600080610c6e836113a3565b9050610cbb81610c81606086018661208d565b8080601f01602080910402602001604051908101604052809392919081815260200183838082843760009201919091525061143492505050565b9392505050565b6001600160a01b038216610d185760405162461bcd60e51b815260206004820181905260248201527f4552433732313a206d696e7420746f20746865207a65726f20616464726573736044820152606401610698565b6000818152600260205260409020546001600160a01b031615610d7d5760405162461bcd60e51b815260206004820152601c60248201527f4552433732313a20746f6b656e20616c7265616479206d696e746564000000006044820152606401610698565b6000818152600260205260409020546001600160a01b031615610de25760405162461bcd60e51b815260206004820152601c60248201527f4552433732313a20746f6b656e20616c7265616479206d696e746564000000006044820152606401610698565b6001600160a01b038216600081815260036020908152604080832080546001019055848352600290915280822080546001600160a01b0319168417905551839291907fddf252ad1be2c89b69c2b068fc378daa952ba7f163c4a11628f55a4df523b3ef908290a45050565b6000828152600260205260409020546001600160a01b0316610ec85760405162461bcd60e51b815260206004820152602e60248201527f45524337323155524953746f726167653a2055524920736574206f66206e6f6e60448201526d32bc34b9ba32b73a103a37b5b2b760911b6064820152608401610698565b6000828152600660209081526040909120825161073992840190611c97565b826001600160a01b0316610efa826108f2565b6001600160a01b031614610f205760405162461bcd60e51b81526004016106989061217e565b6001600160a01b038216610f825760405162461bcd60e51b8152602060048201526024808201527f4552433732313a207472616e7366657220746f20746865207a65726f206164646044820152637265737360e01b6064820152608401610698565b826001600160a01b0316610f95826108f2565b6001600160a01b031614610fbb5760405162461bcd60e51b81526004016106989061217e565b600081815260046020908152604080832080546001600160a01b03199081169091556001600160a01b0387811680865260038552838620805460001901905590871680865283862080546001019055868652600290945282852080549092168417909155905184937fddf252ad1be2c89b69c2b068fc378daa952ba7f163c4a11628f55a4df523b3ef91a4505050565b600081815260046020526040902080546001600160a01b0319166001600160a01b0384169081179091558190611080826108f2565b6001600160a01b03167f8c5be1e5ebec7d5bd14f71427d1e84f3dd0314c0f7b2291e5b200ac8c7c3b92560405160405180910390a45050565b6000806110c5836108f2565b9050806001600160a01b0316846001600160a01b0316148061110c57506001600160a01b0380821660009081526005602090815260408083209388168352929052205460ff165b80610b5e5750836001600160a01b031661112584610555565b6001600160a01b031614949350505050565b610c5f8133611458565b61114b82826109d8565b61080e5760008281526007602090815260408083206001600160a01b03851684529091529020805460ff191660011790556111833390565b6001600160a01b0316816001600160a01b0316837f2f8788117e7eff1d82e926ec794901d17c78024a50270940304540a733656f0d60405160405180910390a45050565b6111d182826109d8565b1561080e5760008281526007602090815260408083206001600160a01b0385168085529252808320805460ff1916905551339285917ff6391f5c32d9c69d2a47ea670b442974b53935d1edc7fd64eb21e047a839171b9190a45050565b816001600160a01b0316836001600160a01b031614156112905760405162461bcd60e51b815260206004820152601960248201527f4552433732313a20617070726f766520746f2063616c6c6572000000000000006044820152606401610698565b6001600160a01b03838116600081815260056020908152604080832094871680845294825291829020805460ff191686151590811790915591519182527f17307eab39ab6107e8899845ad3d59bd9653f200f220920489ca2b5937696c31910160405180910390a3505050565b611308848484610ee7565b611314848484846114b1565b610a4f5760405162461bcd60e51b8152600401610698906121c3565b606061133b82610c00565b600061135260408051602081019091526000815290565b905060008151116113725760405180602001604052806000815250610cbb565b8061137c846115af565b60405160200161138d92919061214f565b6040516020818303038152906040529392505050565b60006104bd7f6316f9ddd4d59a364f3b95c26bab9d392c3380ace0fff15e91ed76f0d8bcd15a833560208501356113dd604087018761208d565b6040516113eb929190612215565b6040519081900381206114199493929160200193845260208401929092526040830152606082015260800190565b60405160208183030381529060405280519060200120611644565b60008060006114438585611692565b91509150611450816116d8565b509392505050565b61146282826109d8565b61080e5761146f81611826565b61147a836020611838565b60405160200161148b929190612225565b60408051601f198184030181529082905262461bcd60e51b825261069891600401611dbb565b60006001600160a01b0384163b156115a457604051630a85bd0160e11b81526001600160a01b0385169063150b7a02906114f590339089908890889060040161229a565b6020604051808303816000875af1925050508015611530575060408051601f3d908101601f1916820190925261152d918101906122d7565b60015b61158a573d80801561155e576040519150601f19603f3d011682016040523d82523d6000602084013e611563565b606091505b5080516115825760405162461bcd60e51b8152600401610698906121c3565b805181602001fd5b6001600160e01b031916630a85bd0160e11b149050610b5e565b506001949350505050565b606060006115bc836119d4565b600101905060008167ffffffffffffffff8111156115dc576115dc611f36565b6040519080825280601f01601f191660200182016040528015611606576020820181803683370190505b5090508181016020015b600019016f181899199a1a9b1b9c1cb0b131b232b360811b600a86061a8153600a850494508461163f57611450565b611610565b60006104bd611651611aac565b8360405161190160f01b6020820152602281018390526042810182905260009060620160405160208183030381529060405280519060200120905092915050565b6000808251604114156116c95760208301516040840151606085015160001a6116bd87828585611bd3565b945094505050506116d1565b506000905060025b9250929050565b60008160048111156116ec576116ec6122f4565b14156116f55750565b6001816004811115611709576117096122f4565b14156117575760405162461bcd60e51b815260206004820152601860248201527f45434453413a20696e76616c6964207369676e617475726500000000000000006044820152606401610698565b600281600481111561176b5761176b6122f4565b14156117b95760405162461bcd60e51b815260206004820152601f60248201527f45434453413a20696e76616c6964207369676e6174757265206c656e677468006044820152606401610698565b60038160048111156117cd576117cd6122f4565b1415610c5f5760405162461bcd60e51b815260206004820152602260248201527f45434453413a20696e76616c6964207369676e6174757265202773272076616c604482015261756560f01b6064820152608401610698565b60606104bd6001600160a01b03831660145b6060600061184783600261230a565b6118529060026120ea565b67ffffffffffffffff81111561186a5761186a611f36565b6040519080825280601f01601f191660200182016040528015611894576020820181803683370190505b509050600360fc1b816000815181106118af576118af612329565b60200101906001600160f81b031916908160001a905350600f60fb1b816001815181106118de576118de612329565b60200101906001600160f81b031916908160001a905350600061190284600261230a565b61190d9060016120ea565b90505b6001811115611985576f181899199a1a9b1b9c1cb0b131b232b360811b85600f166010811061194157611941612329565b1a60f81b82828151811061195757611957612329565b60200101906001600160f81b031916908160001a90535060049490941c9361197e8161233f565b9050611910565b508315610cbb5760405162461bcd60e51b815260206004820181905260248201527f537472696e67733a20686578206c656e67746820696e73756666696369656e746044820152606401610698565b60008072184f03e93ff9f4daa797ed6e38ed64bf6a1f0160401b8310611a135772184f03e93ff9f4daa797ed6e38ed64bf6a1f0160401b830492506040015b6d04ee2d6d415b85acef81000000008310611a3f576d04ee2d6d415b85acef8100000000830492506020015b662386f26fc100008310611a5d57662386f26fc10000830492506010015b6305f5e1008310611a75576305f5e100830492506008015b6127108310611a8957612710830492506004015b60648310611a9b576064830492506002015b600a83106104bd5760010192915050565b6000306001600160a01b037f000000000000000000000000000000000000000000000000000000000000000016148015611b0557507f000000000000000000000000000000000000000000000000000000000000000046145b15611b2f57507f000000000000000000000000000000000000000000000000000000000000000090565b50604080517f00000000000000000000000000000000000000000000000000000000000000006020808301919091527f0000000000000000000000000000000000000000000000000000000000000000828401527f000000000000000000000000000000000000000000000000000000000000000060608301524660808301523060a0808401919091528351808403909101815260c0909201909252805191012090565b6000807f7fffffffffffffffffffffffffffffff5d576e7357a4501ddfe92f46681b20a0831115611c0a5750600090506003611c8e565b6040805160008082526020820180845289905260ff881692820192909252606081018690526080810185905260019060a0016020604051602081039080840390855afa158015611c5e573d6000803e3d6000fd5b5050604051601f1901519150506001600160a01b038116611c8757600060019250925050611c8e565b9150600090505b94509492505050565b828054611ca390612052565b90600052602060002090601f016020900481019282611cc55760008555611d0b565b82601f10611cde57805160ff1916838001178555611d0b565b82800160010185558215611d0b579182015b82811115611d0b578251825591602001919060010190611cf0565b50611d17929150611d1b565b5090565b5b80821115611d175760008155600101611d1c565b6001600160e01b031981168114610c5f57600080fd5b600060208284031215611d5857600080fd5b8135610cbb81611d30565b60005b83811015611d7e578181015183820152602001611d66565b83811115610a4f5750506000910152565b60008151808452611da7816020860160208601611d63565b601f01601f19169290920160200192915050565b602081526000610cbb6020830184611d8f565b600060208284031215611de057600080fd5b5035919050565b80356001600160a01b0381168114611dfe57600080fd5b919050565b60008060408385031215611e1657600080fd5b611e1f83611de7565b9150602083013567ffffffffffffffff811115611e3b57600080fd5b830160808186031215611e4d57600080fd5b809150509250929050565b60008060408385031215611e6b57600080fd5b611e7483611de7565b946020939093013593505050565b600080600060608486031215611e9757600080fd5b611ea084611de7565b9250611eae60208501611de7565b9150604084013590509250925092565b60008060408385031215611ed157600080fd5b82359150611ee160208401611de7565b90509250929050565b600060208284031215611efc57600080fd5b610cbb82611de7565b60008060408385031215611f1857600080fd5b611f2183611de7565b915060208301358015158114611e4d57600080fd5b634e487b7160e01b600052604160045260246000fd5b60008060008060808587031215611f6257600080fd5b611f6b85611de7565b9350611f7960208601611de7565b925060408501359150606085013567ffffffffffffffff80821115611f9d57600080fd5b818701915087601f830112611fb157600080fd5b813581811115611fc357611fc3611f36565b604051601f8201601f19908116603f01168101908382118183101715611feb57611feb611f36565b816040528281528a602084870101111561200457600080fd5b82602086016020830137600060208483010152809550505050505092959194509250565b6000806040838503121561203b57600080fd5b61204483611de7565b9150611ee160208401611de7565b600181811c9082168061206657607f821691505b6020821081141561208757634e487b7160e01b600052602260045260246000fd5b50919050565b6000808335601e198436030181126120a457600080fd5b83018035915067ffffffffffffffff8211156120bf57600080fd5b6020019150368190038213156116d157600080fd5b634e487b7160e01b600052601160045260246000fd5b600082198211156120fd576120fd6120d4565b500190565b6020808252602d908201527f4552433732313a2063616c6c6572206973206e6f7420746f6b656e206f776e6560408201526c1c881bdc88185c1c1c9bdd9959609a1b606082015260800190565b60008351612161818460208801611d63565b835190830190612175818360208801611d63565b01949350505050565b60208082526025908201527f4552433732313a207472616e736665722066726f6d20696e636f72726563742060408201526437bbb732b960d91b606082015260800190565b60208082526032908201527f4552433732313a207472616e7366657220746f206e6f6e20455243373231526560408201527131b2b4bb32b91034b6b83632b6b2b73a32b960711b606082015260800190565b8183823760009101908152919050565b7f416363657373436f6e74726f6c3a206163636f756e742000000000000000000081526000835161225d816017850160208801611d63565b7001034b99036b4b9b9b4b733903937b6329607d1b601791840191820152835161228e816028840160208801611d63565b01602801949350505050565b6001600160a01b03858116825284166020820152604081018390526080606082018190526000906122cd90830184611d8f565b9695505050505050565b6000602082840312156122e957600080fd5b8151610cbb81611d30565b634e487b7160e01b600052602160045260246000fd5b6000816000190483118215151615612324576123246120d4565b500290565b634e487b7160e01b600052603260045260246000fd5b60008161234e5761234e6120d4565b50600019019056fea2646970667358221220f853de960b1cb978c78f49f9b583afe7a8686368614548f3fffbcd60a1d4edb764736f6c634300080a0033",
  "linkReferences": {},
  "deployedLinkReferences": {}
}